{
  "_format": "hh-sol-artifact-1",
  "contractName": "Market",
  "sourceName": "contracts/Market.sol",
  "abi": [
    {
      "inputs": [],
      "stateMutability": "nonpayable",
      "type": "constructor"
    },
    {
      "anonymous": false,
      "inputs": [
        {
          "indexed": true,
          "internalType": "uint256",
          "name": "itemId",
          "type": "uint256"
        },
        {
          "indexed": true,
          "internalType": "address",
          "name": "nftContract",
          "type": "address"
        },
        {
          "indexed": true,
          "internalType": "uint256",
          "name": "tokenId",
          "type": "uint256"
        },
        {
          "indexed": false,
          "internalType": "address",
          "name": "creator",
          "type": "address"
        },
        {
          "indexed": false,
          "internalType": "address",
          "name": "seller",
          "type": "address"
        },
        {
          "indexed": false,
          "internalType": "address",
          "name": "owner",
          "type": "address"
        },
        {
          "indexed": false,
          "internalType": "uint256",
          "name": "price",
          "type": "uint256"
        }
      ],
      "name": "MarketItemCreated",
      "type": "event"
    },
    {
      "anonymous": false,
      "inputs": [
        {
          "indexed": false,
          "internalType": "uint256",
          "name": "itemId",
          "type": "uint256"
        }
      ],
      "name": "MarketItemDeleted",
      "type": "event"
    },
    {
      "anonymous": false,
      "inputs": [
        {
          "indexed": true,
          "internalType": "uint256",
          "name": "itemId",
          "type": "uint256"
        }
      ],
      "name": "ProductListed",
      "type": "event"
    },
    {
      "anonymous": false,
      "inputs": [
        {
          "indexed": true,
          "internalType": "uint256",
          "name": "itemId",
          "type": "uint256"
        },
        {
          "indexed": true,
          "internalType": "address",
          "name": "nftContract",
          "type": "address"
        },
        {
          "indexed": true,
          "internalType": "uint256",
          "name": "tokenId",
          "type": "uint256"
        },
        {
          "indexed": false,
          "internalType": "address",
          "name": "creator",
          "type": "address"
        },
        {
          "indexed": false,
          "internalType": "address",
          "name": "seller",
          "type": "address"
        },
        {
          "indexed": false,
          "internalType": "address",
          "name": "owner",
          "type": "address"
        },
        {
          "indexed": false,
          "internalType": "uint256",
          "name": "price",
          "type": "uint256"
        }
      ],
      "name": "ProductSold",
      "type": "event"
    },
    {
      "anonymous": false,
      "inputs": [
        {
          "indexed": true,
          "internalType": "uint256",
          "name": "itemId",
          "type": "uint256"
        },
        {
          "indexed": true,
          "internalType": "uint256",
          "name": "oldPrice",
          "type": "uint256"
        },
        {
          "indexed": true,
          "internalType": "uint256",
          "name": "newPrice",
          "type": "uint256"
        }
      ],
      "name": "ProductUpdated",
      "type": "event"
    },
    {
      "inputs": [
        {
          "internalType": "address",
          "name": "nftContract",
          "type": "address"
        },
        {
          "internalType": "uint256",
          "name": "tokenId",
          "type": "uint256"
        },
        {
          "internalType": "uint256",
          "name": "price",
          "type": "uint256"
        }
      ],
      "name": "createMarketItem",
      "outputs": [],
      "stateMutability": "payable",
      "type": "function"
    },
    {
      "inputs": [
        {
          "internalType": "address",
          "name": "nftContract",
          "type": "address"
        },
        {
          "internalType": "uint256",
          "name": "itemId",
          "type": "uint256"
        }
      ],
      "name": "createMarketSale",
      "outputs": [],
      "stateMutability": "payable",
      "type": "function"
    },
    {
      "inputs": [
        {
          "internalType": "address",
          "name": "author",
          "type": "address"
        }
      ],
      "name": "fetchAuthorsCreations",
      "outputs": [
        {
          "components": [
            {
              "internalType": "uint256",
              "name": "itemId",
              "type": "uint256"
            },
            {
              "internalType": "address",
              "name": "nftContract",
              "type": "address"
            },
            {
              "internalType": "uint256",
              "name": "tokenId",
              "type": "uint256"
            },
            {
              "internalType": "address payable",
              "name": "creator",
              "type": "address"
            },
            {
              "internalType": "address payable",
              "name": "seller",
              "type": "address"
            },
            {
              "internalType": "address payable",
              "name": "owner",
              "type": "address"
            },
            {
              "internalType": "uint256",
              "name": "price",
              "type": "uint256"
            },
            {
              "internalType": "bool",
              "name": "sold",
              "type": "bool"
            }
          ],
          "internalType": "struct Market.MarketItem[]",
          "name": "",
          "type": "tuple[]"
        }
      ],
      "stateMutability": "view",
      "type": "function"
    },
    {
      "inputs": [],
      "name": "fetchMarketItems",
      "outputs": [
        {
          "components": [
            {
              "internalType": "uint256",
              "name": "itemId",
              "type": "uint256"
            },
            {
              "internalType": "address",
              "name": "nftContract",
              "type": "address"
            },
            {
              "internalType": "uint256",
              "name": "tokenId",
              "type": "uint256"
            },
            {
              "internalType": "address payable",
              "name": "creator",
              "type": "address"
            },
            {
              "internalType": "address payable",
              "name": "seller",
              "type": "address"
            },
            {
              "internalType": "address payable",
              "name": "owner",
              "type": "address"
            },
            {
              "internalType": "uint256",
              "name": "price",
              "type": "uint256"
            },
            {
              "internalType": "bool",
              "name": "sold",
              "type": "bool"
            }
          ],
          "internalType": "struct Market.MarketItem[]",
          "name": "",
          "type": "tuple[]"
        }
      ],
      "stateMutability": "view",
      "type": "function"
    },
    {
      "inputs": [],
      "name": "fetchMyNFTs",
      "outputs": [
        {
          "components": [
            {
              "internalType": "uint256",
              "name": "itemId",
              "type": "uint256"
            },
            {
              "internalType": "address",
              "name": "nftContract",
              "type": "address"
            },
            {
              "internalType": "uint256",
              "name": "tokenId",
              "type": "uint256"
            },
            {
              "internalType": "address payable",
              "name": "creator",
              "type": "address"
            },
            {
              "internalType": "address payable",
              "name": "seller",
              "type": "address"
            },
            {
              "internalType": "address payable",
              "name": "owner",
              "type": "address"
            },
            {
              "internalType": "uint256",
              "name": "price",
              "type": "uint256"
            },
            {
              "internalType": "bool",
              "name": "sold",
              "type": "bool"
            }
          ],
          "internalType": "struct Market.MarketItem[]",
          "name": "",
          "type": "tuple[]"
        }
      ],
      "stateMutability": "view",
      "type": "function"
    },
    {
      "inputs": [
        {
          "internalType": "uint256",
          "name": "id",
          "type": "uint256"
        }
      ],
      "name": "fetchSingleItem",
      "outputs": [
        {
          "components": [
            {
              "internalType": "uint256",
              "name": "itemId",
              "type": "uint256"
            },
            {
              "internalType": "address",
              "name": "nftContract",
              "type": "address"
            },
            {
              "internalType": "uint256",
              "name": "tokenId",
              "type": "uint256"
            },
            {
              "internalType": "address payable",
              "name": "creator",
              "type": "address"
            },
            {
              "internalType": "address payable",
              "name": "seller",
              "type": "address"
            },
            {
              "internalType": "address payable",
              "name": "owner",
              "type": "address"
            },
            {
              "internalType": "uint256",
              "name": "price",
              "type": "uint256"
            },
            {
              "internalType": "bool",
              "name": "sold",
              "type": "bool"
            }
          ],
          "internalType": "struct Market.MarketItem",
          "name": "",
          "type": "tuple"
        }
      ],
      "stateMutability": "view",
      "type": "function"
    },
    {
      "inputs": [],
      "name": "getListingPrice",
      "outputs": [
        {
          "internalType": "uint256",
          "name": "",
          "type": "uint256"
        }
      ],
      "stateMutability": "view",
      "type": "function"
    },
    {
      "inputs": [
        {
          "internalType": "address",
          "name": "nftContract",
          "type": "address"
        },
        {
          "internalType": "uint256",
          "name": "itemId",
          "type": "uint256"
        },
        {
          "internalType": "uint256",
          "name": "newPrice",
          "type": "uint256"
        }
      ],
      "name": "putItemToResell",
      "outputs": [],
      "stateMutability": "payable",
      "type": "function"
    },
    {
      "inputs": [
        {
          "internalType": "uint256",
          "name": "id",
          "type": "uint256"
        },
        {
          "internalType": "uint256",
          "name": "newPrice",
          "type": "uint256"
        }
      ],
      "name": "updateMarketItemPrice",
      "outputs": [],
      "stateMutability": "payable",
      "type": "function"
    }
  ],
  "bytecode": "0x608060405266038d7ea4c6800060055534801561001b57600080fd5b50600160008190555033600460006101000a81548173ffffffffffffffffffffffffffffffffffffffff021916908373ffffffffffffffffffffffffffffffffffffffff160217905550612889806100746000396000f3fe6080604052600436106100865760003560e01c806358eb2df51161005957806358eb2df5146101285780636c8081ed14610144578063a2bf932a14610181578063ae13a317146101be578063c23b139e146101da57610086565b80630f08efe01461008b57806312e85585146100b6578063202e3740146100e157806358271fff1461010c575b600080fd5b34801561009757600080fd5b506100a06101f6565b6040516100ad9190612310565b60405180910390f35b3480156100c257600080fd5b506100cb6105e5565b6040516100d8919061244e565b60405180910390f35b3480156100ed57600080fd5b506100f66105ef565b6040516101039190612310565b60405180910390f35b61012660048036038101906101219190611e5f565b6109e0565b005b610142600480360381019061013d9190611e5f565b610d61565b005b34801561015057600080fd5b5061016b60048036038101906101669190611dfa565b611128565b6040516101789190612310565b60405180910390f35b34801561018d57600080fd5b506101a860048036038101906101a39190611eae565b61158d565b6040516101b59190612432565b60405180910390f35b6101d860048036038101906101d39190611ed7565b61174c565b005b6101f460048036038101906101ef9190611e23565b6118be565b005b606060006102046001611cb1565b905060006102126003611cb1565b61021c6002611cb1565b6102266001611cb1565b6102309190612509565b61023a9190612509565b90506000808267ffffffffffffffff81111561027f577f4e487b7100000000000000000000000000000000000000000000000000000000600052604160045260246000fd5b6040519080825280602002602001820160405280156102b857816020015b6102a5611d31565b81526020019060019003908161029d5790505b50905060005b848110156105da57600073ffffffffffffffffffffffffffffffffffffffff16600660006001846102ef91906124b3565b815260200190815260200160002060050160009054906101000a900473ffffffffffffffffffffffffffffffffffffffff1673ffffffffffffffffffffffffffffffffffffffff161480156103775750600015156006600060018461035491906124b3565b815260200190815260200160002060070160009054906101000a900460ff161515145b80156103a6575060006006600060018461039191906124b3565b81526020019081526020016000206002015414155b156105c75760006001826103ba91906124b3565b905060006006600083815260200190815260200160002090508060405180610100016040529081600082015481526020016001820160009054906101000a900473ffffffffffffffffffffffffffffffffffffffff1673ffffffffffffffffffffffffffffffffffffffff1673ffffffffffffffffffffffffffffffffffffffff168152602001600282015481526020016003820160009054906101000a900473ffffffffffffffffffffffffffffffffffffffff1673ffffffffffffffffffffffffffffffffffffffff1673ffffffffffffffffffffffffffffffffffffffff1681526020016004820160009054906101000a900473ffffffffffffffffffffffffffffffffffffffff1673ffffffffffffffffffffffffffffffffffffffff1673ffffffffffffffffffffffffffffffffffffffff1681526020016005820160009054906101000a900473ffffffffffffffffffffffffffffffffffffffff1673ffffffffffffffffffffffffffffffffffffffff1673ffffffffffffffffffffffffffffffffffffffff168152602001600682015481526020016007820160009054906101000a900460ff1615151515815250508486815181106105aa577f4e487b7100000000000000000000000000000000000000000000000000000000600052603260045260246000fd5b60200260200101819052506001856105c291906124b3565b945050505b80806105d2906125cd565b9150506102be565b508094505050505090565b6000600554905090565b606060006105fd6001611cb1565b905060008060005b838110156106a6573373ffffffffffffffffffffffffffffffffffffffff166006600060018461063591906124b3565b815260200190815260200160002060050160009054906101000a900473ffffffffffffffffffffffffffffffffffffffff1673ffffffffffffffffffffffffffffffffffffffff1614156106935760018361069091906124b3565b92505b808061069e906125cd565b915050610605565b5060008267ffffffffffffffff8111156106e9577f4e487b7100000000000000000000000000000000000000000000000000000000600052604160045260246000fd5b60405190808252806020026020018201604052801561072257816020015b61070f611d31565b8152602001906001900390816107075790505b50905060005b848110156109d5573373ffffffffffffffffffffffffffffffffffffffff166006600060018461075891906124b3565b815260200190815260200160002060050160009054906101000a900473ffffffffffffffffffffffffffffffffffffffff1673ffffffffffffffffffffffffffffffffffffffff1614156109c25760006001826107b591906124b3565b905060006006600083815260200190815260200160002090508060405180610100016040529081600082015481526020016001820160009054906101000a900473ffffffffffffffffffffffffffffffffffffffff1673ffffffffffffffffffffffffffffffffffffffff1673ffffffffffffffffffffffffffffffffffffffff168152602001600282015481526020016003820160009054906101000a900473ffffffffffffffffffffffffffffffffffffffff1673ffffffffffffffffffffffffffffffffffffffff1673ffffffffffffffffffffffffffffffffffffffff1681526020016004820160009054906101000a900473ffffffffffffffffffffffffffffffffffffffff1673ffffffffffffffffffffffffffffffffffffffff1673ffffffffffffffffffffffffffffffffffffffff1681526020016005820160009054906101000a900473ffffffffffffffffffffffffffffffffffffffff1673ffffffffffffffffffffffffffffffffffffffff1673ffffffffffffffffffffffffffffffffffffffff168152602001600682015481526020016007820160009054906101000a900460ff1615151515815250508486815181106109a5577f4e487b7100000000000000000000000000000000000000000000000000000000600052603260045260246000fd5b60200260200101819052506001856109bd91906124b3565b945050505b80806109cd906125cd565b915050610728565b508094505050505090565b60026000541415610a26576040517f08c379a0000000000000000000000000000000000000000000000000000000008152600401610a1d906123d2565b60405180910390fd5b6002600081905550813373ffffffffffffffffffffffffffffffffffffffff166006600083815260200190815260200160002060050160009054906101000a900473ffffffffffffffffffffffffffffffffffffffff1673ffffffffffffffffffffffffffffffffffffffff1614610ad3576040517f08c379a0000000000000000000000000000000000000000000000000000000008152600401610aca90612392565b60405180910390fd5b60006006600085815260200190815260200160002060020154905060008311610b31576040517f08c379a0000000000000000000000000000000000000000000000000000000008152600401610b28906123f2565b60405180910390fd5b6005543414610b75576040517f08c379a0000000000000000000000000000000000000000000000000000000008152600401610b6c906123b2565b60405180910390fd5b60008590508073ffffffffffffffffffffffffffffffffffffffff1663f5537ede3330856040518463ffffffff1660e01b8152600401610bb7939291906122d9565b600060405180830381600087803b158015610bd157600080fd5b505af1158015610be5573d6000803e3d6000fd5b5050505060006006600087815260200190815260200160002060050160009054906101000a900473ffffffffffffffffffffffffffffffffffffffff16905060006006600088815260200190815260200160002060050160006101000a81548173ffffffffffffffffffffffffffffffffffffffff021916908373ffffffffffffffffffffffffffffffffffffffff160217905550806006600088815260200190815260200160002060040160006101000a81548173ffffffffffffffffffffffffffffffffffffffff021916908373ffffffffffffffffffffffffffffffffffffffff16021790555084600660008881526020019081526020016000206006018190555060006006600088815260200190815260200160002060070160006101000a81548160ff021916908315150217905550610d236002611cbf565b857f221866c21613d6f0d77d42f9309b122a25deed1bc186cff9c2f1ddafc52c34f660405160405180910390a2505050506001600081905550505050565b60026000541415610da7576040517f08c379a0000000000000000000000000000000000000000000000000000000008152600401610d9e906123d2565b60405180910390fd5b600260008190555060008111610df2576040517f08c379a0000000000000000000000000000000000000000000000000000000008152600401610de9906123f2565b60405180910390fd5b6005543414610e36576040517f08c379a0000000000000000000000000000000000000000000000000000000008152600401610e2d90612412565b60405180910390fd5b610e406001611d1b565b6000610e4c6001611cb1565b90506040518061010001604052808281526020018573ffffffffffffffffffffffffffffffffffffffff1681526020018481526020013373ffffffffffffffffffffffffffffffffffffffff1681526020013373ffffffffffffffffffffffffffffffffffffffff168152602001600073ffffffffffffffffffffffffffffffffffffffff16815260200183815260200160001515815250600660008381526020019081526020016000206000820151816000015560208201518160010160006101000a81548173ffffffffffffffffffffffffffffffffffffffff021916908373ffffffffffffffffffffffffffffffffffffffff1602179055506040820151816002015560608201518160030160006101000a81548173ffffffffffffffffffffffffffffffffffffffff021916908373ffffffffffffffffffffffffffffffffffffffff16021790555060808201518160040160006101000a81548173ffffffffffffffffffffffffffffffffffffffff021916908373ffffffffffffffffffffffffffffffffffffffff16021790555060a08201518160050160006101000a81548173ffffffffffffffffffffffffffffffffffffffff021916908373ffffffffffffffffffffffffffffffffffffffff16021790555060c0820151816006015560e08201518160070160006101000a81548160ff0219169083151502179055509050508373ffffffffffffffffffffffffffffffffffffffff166323b872dd3330866040518463ffffffff1660e01b8152600401611091939291906122d9565b600060405180830381600087803b1580156110ab57600080fd5b505af11580156110bf573d6000803e3d6000fd5b50505050828473ffffffffffffffffffffffffffffffffffffffff16827f7990294cab81bf6b251c45c1a6b14c27edfac0c2b574fc3dbea97ebe60dfbb9433336000886040516111129493929190612294565b60405180910390a4506001600081905550505050565b606060006111366001611cb1565b905060008060005b83811015611218578573ffffffffffffffffffffffffffffffffffffffff166006600060018461116e91906124b3565b815260200190815260200160002060030160009054906101000a900473ffffffffffffffffffffffffffffffffffffffff1673ffffffffffffffffffffffffffffffffffffffff161480156111f05750600660006001836111cf91906124b3565b815260200190815260200160002060070160009054906101000a900460ff16155b156112055760018361120291906124b3565b92505b8080611210906125cd565b91505061113e565b5060008267ffffffffffffffff81111561125b577f4e487b7100000000000000000000000000000000000000000000000000000000600052604160045260246000fd5b60405190808252806020026020018201604052801561129457816020015b611281611d31565b8152602001906001900390816112795790505b50905060005b84811015611580578673ffffffffffffffffffffffffffffffffffffffff16600660006001846112ca91906124b3565b815260200190815260200160002060030160009054906101000a900473ffffffffffffffffffffffffffffffffffffffff1673ffffffffffffffffffffffffffffffffffffffff1614801561134c57506006600060018361132b91906124b3565b815260200190815260200160002060070160009054906101000a900460ff16155b1561156d57600060018261136091906124b3565b905060006006600083815260200190815260200160002090508060405180610100016040529081600082015481526020016001820160009054906101000a900473ffffffffffffffffffffffffffffffffffffffff1673ffffffffffffffffffffffffffffffffffffffff1673ffffffffffffffffffffffffffffffffffffffff168152602001600282015481526020016003820160009054906101000a900473ffffffffffffffffffffffffffffffffffffffff1673ffffffffffffffffffffffffffffffffffffffff1673ffffffffffffffffffffffffffffffffffffffff1681526020016004820160009054906101000a900473ffffffffffffffffffffffffffffffffffffffff1673ffffffffffffffffffffffffffffffffffffffff1673ffffffffffffffffffffffffffffffffffffffff1681526020016005820160009054906101000a900473ffffffffffffffffffffffffffffffffffffffff1673ffffffffffffffffffffffffffffffffffffffff1673ffffffffffffffffffffffffffffffffffffffff168152602001600682015481526020016007820160009054906101000a900460ff161515151581525050848681518110611550577f4e487b7100000000000000000000000000000000000000000000000000000000600052603260045260246000fd5b602002602001018190525060018561156891906124b3565b945050505b8080611578906125cd565b91505061129a565b5080945050505050919050565b611595611d31565b6006600083815260200190815260200160002060405180610100016040529081600082015481526020016001820160009054906101000a900473ffffffffffffffffffffffffffffffffffffffff1673ffffffffffffffffffffffffffffffffffffffff1673ffffffffffffffffffffffffffffffffffffffff168152602001600282015481526020016003820160009054906101000a900473ffffffffffffffffffffffffffffffffffffffff1673ffffffffffffffffffffffffffffffffffffffff1673ffffffffffffffffffffffffffffffffffffffff1681526020016004820160009054906101000a900473ffffffffffffffffffffffffffffffffffffffff1673ffffffffffffffffffffffffffffffffffffffff1673ffffffffffffffffffffffffffffffffffffffff1681526020016005820160009054906101000a900473ffffffffffffffffffffffffffffffffffffffff1673ffffffffffffffffffffffffffffffffffffffff1673ffffffffffffffffffffffffffffffffffffffff168152602001600682015481526020016007820160009054906101000a900460ff1615151515815250509050919050565b81600073ffffffffffffffffffffffffffffffffffffffff166006600083815260200190815260200160002060050160009054906101000a900473ffffffffffffffffffffffffffffffffffffffff1673ffffffffffffffffffffffffffffffffffffffff1614801561182057503373ffffffffffffffffffffffffffffffffffffffff166006600083815260200190815260200160002060040160009054906101000a900473ffffffffffffffffffffffffffffffffffffffff1673ffffffffffffffffffffffffffffffffffffffff16145b61185f576040517f08c379a000000000000000000000000000000000000000000000000000000000815260040161185690612352565b60405180910390fd5b60006006600085815260200190815260200160002090506000816006015490508382600601819055508381867fc598db734b93c7fd9412e07c1e464ebb4d3dcf9b02c03af26710b307f8b773db60405160405180910390a45050505050565b60026000541415611904576040517f08c379a00000000000000000000000000000000000000000000000000000000081526004016118fb906123d2565b60405180910390fd5b6002600081905550600060066000838152602001908152602001600020600601549050600060066000848152602001908152602001600020600201549050813414611984576040517f08c379a000000000000000000000000000000000000000000000000000000000815260040161197b90612372565b60405180910390fd5b6006600084815260200190815260200160002060040160009054906101000a900473ffffffffffffffffffffffffffffffffffffffff1673ffffffffffffffffffffffffffffffffffffffff166108fc349081150290604051600060405180830381858888f19350505050158015611a00573d6000803e3d6000fd5b508373ffffffffffffffffffffffffffffffffffffffff166323b872dd3033846040518463ffffffff1660e01b8152600401611a3e939291906122d9565b600060405180830381600087803b158015611a5857600080fd5b505af1158015611a6c573d6000803e3d6000fd5b50505050336006600085815260200190815260200160002060050160006101000a81548173ffffffffffffffffffffffffffffffffffffffff021916908373ffffffffffffffffffffffffffffffffffffffff16021790555060016006600085815260200190815260200160002060070160006101000a81548160ff021916908315150217905550611afe6002611d1b565b600460009054906101000a900473ffffffffffffffffffffffffffffffffffffffff1673ffffffffffffffffffffffffffffffffffffffff166108fc6005549081150290604051600060405180830381858888f19350505050158015611b68573d6000803e3d6000fd5b5060066000848152602001908152602001600020600201546006600085815260200190815260200160002060010160009054906101000a900473ffffffffffffffffffffffffffffffffffffffff1673ffffffffffffffffffffffffffffffffffffffff1660066000868152602001908152602001600020600001547fa3995d82a47846edcc310e87a16f5a2cd75d32a7cf59cbd513e132bced64ee8f6006600088815260200190815260200160002060030160009054906101000a900473ffffffffffffffffffffffffffffffffffffffff166006600089815260200190815260200160002060040160009054906101000a900473ffffffffffffffffffffffffffffffffffffffff1633600660008b815260200190815260200160002060060154604051611c9b949392919061224f565b60405180910390a4505060016000819055505050565b600081600001549050919050565b60008160000154905060008111611d0b576040517f08c379a0000000000000000000000000000000000000000000000000000000008152600401611d0290612332565b60405180910390fd5b6001810382600001819055505050565b6001816000016000828254019250508190555050565b60405180610100016040528060008152602001600073ffffffffffffffffffffffffffffffffffffffff16815260200160008152602001600073ffffffffffffffffffffffffffffffffffffffff168152602001600073ffffffffffffffffffffffffffffffffffffffff168152602001600073ffffffffffffffffffffffffffffffffffffffff168152602001600081526020016000151581525090565b600081359050611ddf81612825565b92915050565b600081359050611df48161283c565b92915050565b600060208284031215611e0c57600080fd5b6000611e1a84828501611dd0565b91505092915050565b60008060408385031215611e3657600080fd5b6000611e4485828601611dd0565b9250506020611e5585828601611de5565b9150509250929050565b600080600060608486031215611e7457600080fd5b6000611e8286828701611dd0565b9350506020611e9386828701611de5565b9250506040611ea486828701611de5565b9150509250925092565b600060208284031215611ec057600080fd5b6000611ece84828501611de5565b91505092915050565b60008060408385031215611eea57600080fd5b6000611ef885828601611de5565b9250506020611f0985828601611de5565b9150509250929050565b6000611f1f83836120ed565b6101008301905092915050565b611f3581612597565b82525050565b611f448161254f565b82525050565b611f538161253d565b82525050565b611f628161253d565b82525050565b6000611f7382612479565b611f7d8185612491565b9350611f8883612469565b8060005b83811015611fb9578151611fa08882611f13565b9750611fab83612484565b925050600181019050611f8c565b5085935050505092915050565b611fcf81612561565b82525050565b6000611fe2601b836124a2565b9150611fed82612645565b602082019050919050565b60006120056026836124a2565b91506120108261266e565b604082019050919050565b60006120286040836124a2565b9150612033826126bd565b604082019050919050565b600061204b6028836124a2565b91506120568261270c565b604082019050919050565b600061206e6024836124a2565b91506120798261275b565b604082019050919050565b6000612091601f836124a2565b915061209c826127aa565b602082019050919050565b60006120b4601c836124a2565b91506120bf826127d3565b602082019050919050565b60006120d76014836124a2565b91506120e2826127fc565b602082019050919050565b610100820160008201516121046000850182612231565b5060208201516121176020850182611f4a565b50604082015161212a6040850182612231565b50606082015161213d6060850182611f3b565b5060808201516121506080850182611f3b565b5060a082015161216360a0850182611f3b565b5060c082015161217660c0850182612231565b5060e082015161218960e0850182611fc6565b50505050565b610100820160008201516121a66000850182612231565b5060208201516121b96020850182611f4a565b5060408201516121cc6040850182612231565b5060608201516121df6060850182611f3b565b5060808201516121f26080850182611f3b565b5060a082015161220560a0850182611f3b565b5060c082015161221860c0850182612231565b5060e082015161222b60e0850182611fc6565b50505050565b61223a8161258d565b82525050565b6122498161258d565b82525050565b60006080820190506122646000830187611f2c565b6122716020830186611f2c565b61227e6040830185611f2c565b61228b6060830184612240565b95945050505050565b60006080820190506122a96000830187611f59565b6122b66020830186611f59565b6122c36040830185611f59565b6122d06060830184612240565b95945050505050565b60006060820190506122ee6000830186611f59565b6122fb6020830185611f59565b6123086040830184612240565b949350505050565b6000602082019050818103600083015261232a8184611f68565b905092915050565b6000602082019050818103600083015261234b81611fd5565b9050919050565b6000602082019050818103600083015261236b81611ff8565b9050919050565b6000602082019050818103600083015261238b8161201b565b9050919050565b600060208201905081810360008301526123ab8161203e565b9050919050565b600060208201905081810360008301526123cb81612061565b9050919050565b600060208201905081810360008301526123eb81612084565b9050919050565b6000602082019050818103600083015261240b816120a7565b9050919050565b6000602082019050818103600083015261242b816120ca565b9050919050565b600061010082019050612448600083018461218f565b92915050565b60006020820190506124636000830184612240565b92915050565b6000819050602082019050919050565b600081519050919050565b6000602082019050919050565b600082825260208201905092915050565b600082825260208201905092915050565b60006124be8261258d565b91506124c98361258d565b9250827fffffffffffffffffffffffffffffffffffffffffffffffffffffffffffffffff038211156124fe576124fd612616565b5b828201905092915050565b60006125148261258d565b915061251f8361258d565b92508282101561253257612531612616565b5b828203905092915050565b60006125488261256d565b9050919050565b600061255a8261256d565b9050919050565b60008115159050919050565b600073ffffffffffffffffffffffffffffffffffffffff82169050919050565b6000819050919050565b60006125a2826125a9565b9050919050565b60006125b4826125bb565b9050919050565b60006125c68261256d565b9050919050565b60006125d88261258d565b91507fffffffffffffffffffffffffffffffffffffffffffffffffffffffffffffffff82141561260b5761260a612616565b5b600182019050919050565b7f4e487b7100000000000000000000000000000000000000000000000000000000600052601160045260246000fd5b7f436f756e7465723a2064656372656d656e74206f766572666c6f770000000000600082015250565b7f4f6e6c79207468652070726f647563742063616e20646f2074686973206f706560008201527f726174696f6e0000000000000000000000000000000000000000000000000000602082015250565b7f506c65617365207375626d6974207468652061736b696e67207072696365206960008201527f6e206f7264657220746f20636f6d706c65746520746865207075726368617365602082015250565b7f4f6e6c792070726f64756374206f776e65722063616e20646f2074686973206f60008201527f7065726174696f6e000000000000000000000000000000000000000000000000602082015250565b7f5072696365206d75737420626520657175616c20746f206c697374696e67207060008201527f7269636500000000000000000000000000000000000000000000000000000000602082015250565b7f5265656e7472616e637947756172643a207265656e7472616e742063616c6c00600082015250565b7f5072696365206d757374206265206174206c6561737420312077656900000000600082015250565b7f4c697374696e6720666565207265717569726564000000000000000000000000600082015250565b61282e8161253d565b811461283957600080fd5b50565b6128458161258d565b811461285057600080fd5b5056fea2646970667358221220ffaa521ffea73835d6c4a16d7ff6147a99165b44db179fc86e88ab9179c7dacb64736f6c63430008040033",
  "linkReferences": {},
  "deployedLinkReferences": {}
}